:020000040800F2
:10400000E0260020CD400008E55E0008295C00089D
:1040100000000000000000000000000000000000A0
:10402000000000000000000000000000F162000835
:104030000000000000000000E75E0008996400082E
:10404000DF40000800000000D1600008DF400008E9
:1040500011600008DF400008DF400008DF40000872
:1040600000000000DF400008DF400008DF400008DB
:10407000DF400008DF400008DF40000800000000CB
:10408000DF400008DF400008DF400008DF40000894
:10409000DF400008DF400008DF400008DF40000884
:1040A000DF400008DF400008DF400008DF40000874
:1040B000DF400008DF4000080348854600F0CCF8E8
:1040C0000048004765D40008E026002004488047E7
:1040D00004480047FEE7FEE7FEE7FEE7FEE7FEE7EF
:1040E000A5640008B940000830B50B460146002021
:1040F0002022012409E00D46D5409D4205D31D46EE
:104100009540491B2546954040191546521E002DE5
:10411000F1DC30BD03460B439B0703D009E008C91F
:10412000121F08C0042AFAD203E00B780370401C67
:10413000491C521EF9D27047D2B201E00270401CF5
:10414000491EFBD270470022F6E710B513460A4617
:1041500004461946FFF7F0FF204610BD421E537873
:10416000521C002BFBD10B781370491C521C002BE6
:10417000F9D17047421C0178401C0029FBD1801AFC
:10418000704710B5002200E0521C835C8C5CA34297
:1041900001D1002BF8D1D8B2E1B2401A10BD0346CC
:1041A0000A780270401C491C002AF9D11846704751
:1041B00030B505460020034600E05B1C934205D263
:1041C000EC5CC85C201A01D1002CF6D130BD70B572
:1041D000064602F003FA046805460A22002130462A
:1041E00000F002F82C6070BDF7B5009C0F46002669
:1041F0002578641C002D05D000F040F80068405D73
:10420000C007F5D12B2D02D02D2D18D0641E3946B4
:104210002046029A00F036F8002F04D03968A142F7
:1042200001D1009939607105022400290BDA40425E
:10423000002803DD02F0D2F90460A007FEBD0120D2
:1042400080020643E3E70028F8DA02F0C7F90460C9
:104250000048FEBDFFFFFF7F064C0125064E05E02E
:10426000E36807CC2B430C3C98471034B442F7D397
:10427000FFF726FF0447010824470108004870475C
:1042800004460108F7B582B0029C00272078641C20
:1042900015460197302802D0002D15D015E0207862
:1042A0000127641C782804D0582802D0002D09D09A
:1042B0000BE0002D01D0102D07D10027102520780C
:1042C000641C02E0082500E00A250026009610E0A4
:1042D0000099012769430818020C294680B27143EE
:1042E00000908E183804864201D301200190207876
:1042F000641C294600F019F80028E9DA0398002820
:1043000005D0002F01D0641E00E0029C04600198DB
:10431000002806D002F062F902210160C81E05B033
:10432000F0BD009930040843F9E73A2800D230384C
:10433000202302469A43412A01D310463738884247
:1043400001D30020C043704730B58C180278401C60
:1043500013071B0F01D10378401C120906D1027804
:10436000401C03E005780D70401C491C5B1EF9D110
:1043700001E00B70491C521EFBD1A142E6D3002084
:1043800030BD72B6FEE70000FCB5002301259AE0BF
:1043900022462C469C4022406FD04E68012E05D00C
:1043A000022E03D0112E01D0122E16D186680327BB
:1043B000B4465E00B646B7406646BE43B446CF68D4
:1043C0007646B7406646374387604668A6430C7911
:1043D000E406E40F9C4034434460C6685F00032455
:1043E000BC40A446A6438C68BC403443C4604C68BF
:1043F000022C01D0122C14D1DC08A4002418019442
:10440000266A5C07B646E60E0F24B4400096764650
:10441000A643B6460C69009EB44076462643019CEE
:10442000266204686646B4430E79B607B60FBE40EE
:10443000264306604C68E40044D59E08254CB6002F
:104440003419A446246E9E07F60E0F27B740BC43CE
:1044500005273F07B84201D1002710E01E4FB842A0
:1044600001D101270BE01D4FB84201D1022706E020
:104470001B4FB84202D1032701E023E00527B740D4
:10448000274364462766134E803634684F6894434A
:10449000FF0300D51443346074684F689443BF032E
:1044A00000D5144374600B4C26684F689643FF0296
:1044B00000D51643266066684F689643BF0200D554
:1044C000164366605B1C0A681446DA4000D05FE75A
:1044D000FCBD00000018024000040050000800501D
:1044E000000C00500069084000D001207047002AED
:1044F00001D0816170478162704700000148806887
:10450000704700000000002070B50246403253782A
:10451000202B1CD11378012B19D0012313702424D4
:104520005470046825689D432560046825681E034F
:10453000B5432560046825680D432560006801685F
:1045400019430160202050700020107070BD0220BF
:1045500070BD70B5024640325378202B1BD11378C2
:10456000012B18D0012414702423537003681D6894
:10457000A5431D6005682B680F263602B343090268
:1045800019432960006801682143016020205070B0
:104590000020107070BD022070BD000070B50400D6
:1045A00006D02546403568780026002802D005E070
:1045B000012070BD2E70204600F09AF9242068700A
:1045C000206801684908490001600F2160680906F8
:1045D00088432168086121688A680120C0038243FA
:1045E0008A60E1680129A16808D021229202114362
:1045F00022689160E168022902D005E00143F7E7F3
:1046000001212268C902516021684A680F4B1A4390
:104610004A602168CA688243CA60616920690843A8
:10462000A169090208432168C860216AE06908435A
:1046300021680860206801680122114301606664F6
:10464000202068702663AE70002070BD00800002DC
:10465000FFB5054604464035687883B0202875D1FB
:104660000C98002814D00D98002811D02878012823
:104670006CD001202870FFF741FF0746012200900F
:104680001923D103204601F08DFB002874D103E0EB
:104690000120400260646FE0222068704020A87012
:1046A000002666640C9860620D98608566630E98BB
:1046B0000090019704A90EC9204601F0FFFA0028D6
:1046C00001D02E7058E0618D3448FF2905D9FF22B2
:1046D000228501231B06009006E0618D2185009054
:1046E000208D0123C2B25B062046049901F046FBEF
:1046F00000970022042120460E9B01F053FB002866
:104700003AD12068406A616A0870606A401C606241
:10471000208D401E81B22185608D401E6085608D98
:1047200000281FD000291DD100970022802120469B
:104730000E9B01F037FB00281ED1608DFF2806D9A3
:10474000FF22228501231B06009607E024E0608DEE
:1047500020850096208D0123C2B25B062046049975
:1047600001F00CFB608D0028C2D13A4620460E991C
:1047700001F03FFB002802D0012007B0F0BD206807
:104780002021C16120684268054B1A40426069706F
:10479000AE702E700020F0E70220EEE700240080CB
:1047A00000E800FEFFB5054604464035687883B052
:1047B000202872D10C98002814D00D98002811D010
:1047C0002878012869D001202870FFF797FE074656
:1047D000012200901923D103204601F0E3FA0028BA
:1047E00071D103E00120400260646CE02120687018
:1047F0004020A870002666640C9860620D98608561
:1048000066630E980090019704A90EC9204601F036
:1048100085FA002801D02E7055E0608DFF2805D95B
:10482000FF22228501231B06009606E0608D20856D
:104830000096208D0123C2B25B062046049901F048
:104840009DFA3A4620460E9901F0F9FA00283AD12D
:10485000606A216800788862606A401C6062608DCE
:10486000401E6085208D401E80B22085618D00290C
:104870001FD000281DD100970022802120460E9BCA
:1048800001F090FA00281ED1608DFF2806D9FF2282
:10489000228501231B06009607E024E0608D208519
:1048A0000096208D0123C2B25B062046049901F0D8
:1048B00065FA608D0028C4D13A4620460E9901F071
:1048C00098FA002802D0012007B0F0BD206820210E
:1048D000C16120684268054B1A4042606970AE7041
:1048E0002E700020F0E70220EEE7000000E800FE56
:1048F00010B586B0044614216846FFF724FC114920
:10490000206888421CD1104C616B02200143616316
:10491000616B01400591C0200090122001900020A1
:10492000029003900620049069460848FFF72CFD8A
:10493000E16B012040050143E163E16B014005911A
:1049400006B010BD005400400010024000040050AA
:1049500070B504000FD0216813480860216813481F
:10496000086003CC41602068083C21688860FFF73C
:10497000C5FD054608E0012070BDFFF7BFFD401BE7
:10498000302801D9032070BD2068C0680028F4D108
:1049900020680269E1688A4201D0016101E00449AE
:1049A0000160002070BD0000CCCC00005555000017
:1049B000AAAA0000006802490160002070470000B8
:1049C000AAAA0000024881680278891881607047AD
:1049D0000000002010B5084800240168821511432A
:1049E0000160204600F00AF8002801D0012401E00F
:1049F00000F028F8204610BD0020024070B50F4E90
:104A0000002431780546002915D07D20C000FFF72D
:104A10006BFB01460A480068FFF766FB01F0ECF803
:104A2000002808D1042D06D200222946401E00F09D
:104A300037F8756000E00124204670BD00000020BA
:104A40000C00002008B50F480168012211430160E5
:104A50000068104000900B484038C26B01040A43C4
:104A6000C263C06B0022084000901146042000F091
:104A700017F8042000F008F80320400201F0B2F813
:104A800008BD000040100240002805DBC106C90E29
:104A900001208840014908607047000000E100E003
:104AA00010B501F079FD10BD10B50F4C216803223F
:104AB0005202914301432160C11FFF39FA390ED1DF
:104AC0000A480621006848430949FFF70DFB401CCE
:104AD00002E0002805D0401E61694905F9D4002094
:104AE00010BD032010BD0000007000400C0000202D
:104AF00040420F000248016882151143016070476F
:104B000000700040F8B5044600680026524D80034E
:104B100058D5514800274038C06BC00009D44E48D2
:104B20004038C26B01040A43C263C06B08400127CE
:104B300000904A480168821511430160FFF7DEFCCE
:104B4000009005E0FFF7DAFC0099401A022825D80A
:104B500042480068C005F5D5E8690321090208400C
:104B60000FD0A16981420CD0E86903210902EA69EA
:104B70008843012109040A43EA61EA698A43EA6138
:104B8000E861C0070FD0FFF7B9FC009008E0FFF71D
:104B9000B5FC0099411A3248814201D9032609E047
:104BA000E8698007F3D5E869032109028843A16910
:104BB0000843E861002F05D027484038C16B020444
:104BC0009143C1632078C00705D068696168800897
:104BD0008000084368612078800705D568690C214A
:104BE0008843A168084368612078800606D5686913
:104BF000032109038843E168084368612088400471
:104C000011D56869616980008008084368610121E5
:104C100060698907884206D10F484038C16801227F
:104C200012041143C1602088000512D56869032170
:104C30008903884321690843686101212069890348
:104C4000884206D104484038C16801221204114349
:104C5000C1603046F8BD00004010024000700040C6
:104C600088130000F8B50F46060043D04D4D286864
:104C70004007400FB84213D22868C008C00038432C
:104C80002860FFF73BFC044605E0FFF737FC011BFB
:104C90004548814261D828684007400FB842F4D1A6
:104CA0003068424C81070DD5400704D5A068072124
:104CB00009030843A060A0680F2109028843B16876
:104CC0000843A0603078C00732D0706801280AD04D
:104CD00002280BD000280FD03449403103280ED0D1
:104CE000C969890704E02168890301E02168890115
:104CF000002906DB0120F8BD21684905F8E7096AAB
:104D0000EFE7A168C908C9000143A160FFF7F6FBFE
:104D1000009006E0FFF7F2FB0099411A2248814219
:104D20001BD8A068382108407168C9008842F1D1B9
:104D300028684007400FB84217D91A480168C908C7
:104D4000C90039430160FFF7D9FB054607E0FFF7CB
:104D5000D5FB411B1448814201D90320F8BD1148FD
:104D600000684007400FB842F1D13078400706D5BF
:104D7000A068072109038843F1680843A06000F098
:104D80001DF8A1683C2289091140094A515CC906F5
:104D9000C90EC8400749086007480068FFF72EFEA3
:104DA000F8BD0000002002408813000000100240FF
:104DB000A04301080C0000200400002010B5204C86
:104DC000A068204A8006400F16D0A0688006410FD8
:104DD000501001290FD0A1688906490F022912D06D
:104DE000A0688006400F042823D0A0688006400FEA
:104DF000032821D0002010BD206801218004400F2D
:104E00008140104612E0E1688B07E1689B0F49067C
:104E1000490F491C032B00D01046FFF765F9E168E4
:104E20004904490E4843E168490F491CFFF75CF902
:104E300010BD0120C00310BD7D20000210BD000088
:104E4000001002400024F400F8B504007ED0207861
:104E50003827C007EB4D002846D0A868E9683840DD
:104E60008907890F102802D008280BD001E00329F8
:104E700008D001206268000482420AD129680143F7
:104E8000296015E0286880032ED560680028DDD0F1
:104E90002AE0052301211B0489049A422A6802D1D1
:104EA0000A432A60EAE782432A6028688843286028
:104EB000606800280CD0FFF721FB064604E0FFF7EE
:104EC0001DFB801B642873D828688003F7D50BE08E
:104ED000FFF714FB064604E0FFF710FB801B642875
:104EE000F1D828688003F7D42078800769D5A868AE
:104EF000E96838408A070721920FC902102802D0BA
:104F0000002813D001E0022A10D0E068002846D023
:104F1000286888432169084328602868FF210131F7
:104F200008432860FFF7EAFA06462CE02A68520593
:104F300002D5E268002A89D06A687F231B029A435F
:104F400063691B021A436A60002800E08DE00ED1FD
:104F50002868884321690843286028680121800463
:104F6000400F8140A848FFF7BFF8A8490860A8484B
:104F70000068FFF743FD002877D122E0FFF7BEFA73
:104F8000801B02289FD828684005F7D568687F21D4
:104F900009028843616909020843686011E02968D1
:104FA000FF20013081432960FFF7A8FA064605E09B
:104FB00098E0FFF7A3FA801B022884D828684005F0
:104FC000F7D42078934E00072ED5A8688006400FAE
:104FD00003280AD0A0690028306A16D001210843AE
:104FE0003062FFF78BFA07460BE0306A80071BD56B
:104FF000A06900289FD017E0FFF780FAC01B0228A5
:1050000070D8306A8007F7D50EE040084000306263
:10501000FFF774FA074604E0FFF770FAC01B022896
:1050200060D8306A8007F7D4207840076CD5A8682C
:1050300000278006400F042818D0E86BC00008D471
:10504000E96B012000070143E963E96B0140012797
:10505000009171480168C90519D40168821511438E
:105060000160FFF74BFA00900DE083E0F0698007E4
:105070004AD5A06800287DD046E0FFF73FFA0099A6
:10508000401A02282ED864480068C005F5D5A168EA
:10509000012910D004200529F16911D049084900DF
:1050A000F161F1698143F161A068002816D0FFF732
:1050B00025FA00900EE0F06901210843F061F3E762
:1050C0000143F161F7E7FFF719FA0099411A5348D4
:1050D00081426DD8F0698007F5D50EE0FFF70EFA32
:1050E000009007E064E0FFF709FA0099411A4B4885
:1050F00081425DD8F0698007F5D4002F04D0E96BB8
:10510000012000078143E963E069002877D0A9689E
:105110008906490F022951D001263606022828683F
:105120000DD0B0432860E86880088000E860E86837
:105130003B490840E860FFF7E1F904463AE0B04334
:105140002860FFF7DBF9074604E0FFF7D7F9C01B3B
:1051500002282DD828688001F7D4616A206AA26AE3
:105160000843E16A120211430843216B0843E968CE
:105170002C4A00E041E011400843E86028683043D1
:105180002860E868012109070843E860FFF7B6F9DD
:10519000044604E0FFF7B2F9001B022808D828688B
:1051A0008001F7D52BE0FFF7A9F9001B022801D9F0
:1051B0000320F8BD28688001F5D420E00128F8D04C
:1051C000E868226A8107890F914216D17021626ACC
:1051D0000140914211D17F21A26A090201401202CD
:1051E00091420AD11F214904E26A0140914204D14F
:1051F000400F216B4007884201D00120F8BD0020FC
:10520000F8BD0000001002400024F4000C00002053
:10521000040000204010024000700040881300008D
:10522000FFFFFEEF8C80C11F7047704770B50446CA
:10523000006881690125C904002908DA016DC907E0
:1052400005D0C16D2943C1652046FFF7EEFF2068F8
:105250008169890409D5016D890706D5C16D0222CE
:105260001143C1652046FFF7DFFF2034657270BD32
:1052700010B500680B464068C021C94301400002D8
:10528000000ECC04D870E40E5C708C06A40E0904E9
:10529000490F9C701970002A0AD100F0BAFED8702C
:1052A000587800F0B6FE5870987800F0B2FE98700A
:1052B000002010BD10B50B4601688968596001686F
:1052C00009694904490C9960006801680E48014069
:1052D0008802800E4C041870640E5C704C06640EDC
:1052E0004902C90F9C70D970002A0AD100F091FEC2
:1052F0001870587800F08DFE5870987800F089FE8C
:105300009870002010BD00007F7F7F0070B50446BC
:105310000120002C49D025462035687A002806D186
:1053200028721120C0026060204600F041F802207F
:1053300068722168CA20486221685320486220466A
:1053400000F07BFE002829D120688169174A1140AE
:10535000816121688869A268E369104362691A4320
:105360001043886121682069086120680169A28969
:10537000120411430161204600F082FE00280DD185
:1053800021688A69D200D2088A6122689169636AB9
:10539000A6691943236A3343194391612268FF21A7
:1053A0005162002801D10121697270BDBFFF8FFBDE
:1053B00008B500680D49884216D10D48C16901221F
:1053C000D2031143C1610A484038C26B01150A4338
:1053D000C263C06B00220840009011460220FFF714
:1053E0005FFB0220FFF750FB08BD000000280040D3
:1053F00040100240FEB5064604462036307A0B4681
:1054000001284BD0012030720220707218462030E3
:105410000090206800278069002A41D0400600D40F
:10542000DF7019789D7809040D435978DA780902FC
:10543000920511430D430099D869097809060D4377
:1054400005435869996905435868084300902168E5
:10545000CA204862216853204862586AC11F2068E8
:10546000F9390DD08169012252029143816120688E
:10547000C16D02221143C165FFF740F8019054E06D
:105480008269FF2101318A4382612068C16D012256
:105490001143C165FFF732F8019024E00220FEBD00
:1054A000400600D4DF70187800F0BBFD0504587882
:1054B00000F0B7FD00020543987800F0B2FD054307
:1054C000D878800505430098007800F0AAFD000612
:1054D0000543D869B4E7FFF711F80199411A7D2017
:1054E000C00081421AD82068C068C007F3D0206885
:1054F000056421680098486420688169FF220132B0
:105500001143816120688169120120E0FEF7F6FFF6
:105510000199411A7D20C000814206D92168FF20EF
:105520004862032070723772FEBD2068C068800731
:10553000ECD52068856421680098C864206881697A
:1055400001225202114381612068816912011143D5
:105550008161074801680122D2041143016021687A
:10556000FF2048620120707237720020FEBD0000EB
:1055700080180240F8B5064605462036307A0B46BC
:1055800001280FD00127377202207072002A0BD039
:10559000D8789C78000404435878097800024903BD
:1055A000084317E00220F8BD5878C10603D5EF2163
:1055B00008400A305870D87800F033FD0404587859
:1055C00000F02FFD00020443987800F02AFD044308
:1055D0001878400304432968CA2048622968532088
:1055E0004862284600F029FD002806D107480440FB
:1055F00028684460284600F043FD2A68FF21516274
:10560000002800D1777200213172F8BD3FFFFF0002
:10561000F7B5064605462036307A0C46012810D0EC
:1056200001203072022070722968CA2048622968FD
:1056300053204862284600F000FD0027002802D0D1
:1056400027E00220FEBD029800282868806926D045
:10565000400600D4E7702078A37800040343607804
:10566000E17800028905084303431848034028688D
:105670000360286881690122920491438161216954
:10568000E068084329688A6910438861284600F069
:10569000F7FC2A68FF215162002813D014E040066D
:1056A00000D4E770207800F0BCFC0304607800F0C0
:1056B000B8FC00020343A07800F0B3FC0343E07899
:1056C0008005D1E7012171723772FEBD7F7F7F00B7
:1056D00070B504460068C168A0229143C160FEF71E
:1056E0000DFF7D260546F60006E0FEF707FF401B8E
:1056F000B04201D9032070BD2068C0688006F4D58F
:10570000002070BDF8B504000CD0606A00250028A8
:105710000AD02561656126464036A562707F002863
:1057200008D00BE00120F8BD6168C81FFD38F2D039
:10573000E561F0E73577204600F05CF802227277E9
:10574000206801684023994301600723E1681B0238
:10575000994201D9002001E0012000030F273F02F8
:10576000B94202D0994200D0A562FF236168053397
:1057700019402127A368BF023B4019432369134006
:10578000227D1943D207D20F11430123A2695B0284
:105790001A401143E26938231A401143226A8023D8
:1057A0001A401143A26A9B011A40114322681160FA
:1057B000A1690422090C1140626A10231A401143A6
:1057C000626B08231A4011430F23E2681B021A4040
:1057D00011430122120310400143206841602068F8
:1057E000C16952109143C161256601207077002084
:1057F000F8BD000030B587B0044614216846FEF7B6
:10580000A2FC23681E4C00211E480222A34219D18B
:105810001C4B40331D68841425431D601B682340C6
:105820000593436B012423434363406B0291204063
:105830000590E020009004910520019203926946B2
:10584000000718E0104CA34217D1C46B1B141C4373
:10585000C463C46B1C400594436B13434363406BA8
:10586000029110400590072040030491009001929E
:10587000039269460548FEF787FD07B030BD00007A
:105880000030014000100240003800400004005089
:10589000FFB5054604464035287F002781B01646EF
:1058A000012809D001202877FEF728FE0090687FA4
:1058B000012804D0022795E0022005B0F0BD02982F
:1058C000002872D0002E70D0032068770020206658
:1058D0000299A163A687E6872064A880E8802065F6
:1058E000E0640122A068D2034021904208D12068E0
:1058F00002688A430260206802680B021A43026051
:1059000020680268520602D402680A430260072136
:10591000E06809028842606826D9002801D0012E7B
:105920001ED1A06B21680088C86006E020688168ED
:10593000890709D5A16B0988C160A06B801CA06391
:10594000E08F401EE0870BE0FEF7D8FD0099411A7A
:105950000498814202D3401C02D039E0002837D09D
:10596000E08F0028E2D126E0002801D0012E1FD1CF
:10597000A06B21680078087306E0206881688907B9
:1059800009D5A16B09780173A06B401CA063E08F5F
:10599000401EE0870CE0FEF7B1FD0099411A049823
:1059A000814203D3401C03D012E01AE000280FD03C
:1059B000E08F0028E1D12046009A049900F0B4FB62
:1059C000002801D020202066A068002802D005E031
:1059D000032707E02068C16880680090206E0028D7
:1059E00000D001270120687700202877384664E737
:1059F000FFB5044683B001200190002025464035C4
:105A00000090287F0C9F1E4601280FD00120287788
:105A1000FEF774FD0290687F616801280DD0CA1FEF
:105A2000FD3A08D1A168002905D102E0022007B0A3
:105A3000F0BD042801D00220D1E00498002820D035
:105A4000059800281DD0002E1BD0687F042801D0A7
:105A5000052068770020206605992164EE80AE80DD
:105A60000499A163E687A687E064206507210120E9
:105A7000E268090200038A422268536803D983431B
:105A800002E00120ABE00343536020680268520645
:105A900003D4026840231A430260E06888426068C9
:105AA00044D9002801D0012E39D1A06B216800888B
:105AB000C860A06B801CA063E08F401EE0872EE0D2
:105AC00020688168890710D5E18F00290DD00199E0
:105AD00001290AD1A16B0988C160A06B801CA06359
:105AE000E08F401EE0870020019020688168C90790
:105AF0000DD0E98800290AD0C068216C0880206C8C
:105B0000801C2064E888401EE88001200190FEF798
:105B1000F5FC0299401AB84201D3781C5ED1E08F9F
:105B20000028CDD1E8880028CAD146E0002801D05D
:105B3000012E3CD1A06B216800780873A06B401C3B
:105B4000A063E08F401EE08731E02068816889070C
:105B500010D5E18F00290DD0019901290AD1A16B3F
:105B600009780173A06B401CA063E08F401EE087A2
:105B70000020019020688168C9070DD0E9880029BC
:105B80000AD0007B216C0870206C401C2064E888DF
:105B9000401EE88001200190FEF7B0FC0299401AF7
:105BA000B84202D3781C02D018E0002F16D0E08F44
:105BB0000028CAD1E8880028C7D139462046029A71
:105BC00000F0B2FA002803D00120009020202066C7
:105BD0000120687700202877009828E703200090AC
:105BE000F6E7000003490A6803235B029A43024375
:105BF0000A60704700000140094910B5401E884204
:105C000001D9012010BD074C60610321081F00F07D
:105C1000C3FC0020A06107202061002010BD00000F
:105C2000FFFFFF0000E000E0FEE701688A69D24361
:105C3000920701D400228A6200688169C943C907BA
:105C400003D081690122114381617047F7B5044691
:105C500000680E468069C043C0062BD42027254625
:105C6000403520688069C043800612D5701CF8D08A
:105C7000FEF744FC0299401AB04201D8002EF0D140
:105C8000606C384360646F700020A8702870012039
:105C9000FEBD21681020C8612068C7612046FFF75B
:105CA000C4FF20684168044A11404160606C0421CF
:105CB0000843E7E70020FEBD00E800FEF8B5044613
:105CC000164615481D46DAB20090079F002320466D
:105CD00000F054F83A462046069900F0B0F8002843
:105CE00018D12846F5B2012809D02168300A886207
:105CF0003A462046069900F0A2F800280AD120680A
:105D000085620097002240212046069B00F04AF859
:105D1000002800D00120F8BD00200080F8B504461E
:105D2000164615481D46DAB2C3020090079F20466A
:105D300000F024F83A462046069900F080F8002842
:105D400018D12846F5B2012809D02168300A8862A6
:105D50003A462046069900F072F800280AD12068D9
:105D600085620097002280212046069B00F01AF8E9
:105D7000002800D00120F8BD00200080F0B50668A2
:105D8000059C7568064F600D384385438805800D76
:105D9000110408431843204305437560F0BD00001B
:105DA000FF63FF03F8B51D4617460E46044609E09B
:105DB000681C07D0FEF7A2FB0699401AA8420BD830
:105DC000002D09D020688169304688430FD000201B
:105DD000B842EDD00020F8BD616C20200143616421
:105DE000403460700020A07020700120F8BD0120B8
:105DF000EEE770B516460D4604460FE032462946DA
:105E00002046FFF723FF002801D0012070BDFEF7D8
:105E100075FB801BA84208D8002D06D02068806939
:105E2000C0438006EAD4002070BD616C202001438D
:105E30006164403460700020A0702070E5E770B5A8
:105E400016460D46044611E0324629462046FFF725
:105E5000FDFE002801D0012070BD681C06D0FEF7B1
:105E60004DFB801BA84208D8002D06D02068806911
:105E7000C0438007E8D4002070BD616C202001433E
:105E80006164403460700020A0702070E3E710B5BA
:105E900004460DF0A8F80F200DF0B6F82004000E0F
:105EA0000DF0B2F8E0B20DF0AFF80DF0A8F804462E
:105EB0000DF0A1F8204610BD70B50D4604460DF05A
:105EC00092F8F0200DF0A0F82004000E0DF09CF8E0
:105ED000E0B20DF099F828460DF096F80DF08BF829
:105EE000012070BDFEE7704710B5084B5C78012CAF
:105EF00007D1102805D1012904D001209871022072
:105F0000587010BD014812304270F8E713020020AB
:105F100010B5084B9C78012C07D1112805D1012917
:105F200004D0012098710220987010BD01481230F1
:105F30008270F8E71302002010B5094B1C78012C81
:105F400009D1022807D1012906D0012019460A39B2
:105F500088710220187010BD014808300271F8E7FE
:105F60001D02002010B5094B5C78012C09D10328D3
:105F700007D1012906D0012019460A39887102206B
:105F8000587010BD014808304271F8E71D0200202A
:105F900010B5094B9C78012C09D1042807D101299F
:105FA00006D0012019460A3988710220987010BD68
:105FB000014808308271F8E71D02002010B5094B36
:105FC000DC78012C09D1052807D1012906D0012050
:105FD00019460A3988710220D87010BD014808306E
:105FE000C271F8E71D02002010B5084B1C78012C87
:105FF00007D1002805D1012904D001209871022081
:10600000187010BD014812300270F8E7130200202A
:10601000704701090A2200075143000F4018C0B21F
:1060200070470022014602E00A39C9B2521C0A290F
:10603000FAD21007000E08437047F8B5044600680E
:106040000025C168490618D4C16880221143C16087
:10605000FEF754FA27460646203708E0FEF74EFAC8
:10606000811B7D20C000814201D903257D722068FB
:10607000C068400601D4032DF0D12846F8BD0000C9
:10608000F8B5124C0026E16880229143E160A169D5
:10609000054689062035002907DBFFF719FB002894
:1060A00011D00320687206460DE0A1692027B9438C
:1060B000A161FFF70DFB002802D00320687206469D
:1060C000A0693843A0613046F8BD000000280040B8
:1060D00000B589B0142103A8FEF735F80020024668
:1060E000029003A90F48FFF7E5F8002202A90D4826
:1060F000FFF7BEF86846817A0170017A4170417AF3
:106100008170C17AC170017B0171417B4171817BDA
:1061100081710199009801F05FFA0248FFF786F853
:1061200009B000BDA0030020F8B50F460B46154688
:106130000092032104460022C90200F01BF8202629
:10614000002812D13B46002280212046009500F015
:1061500073F8002809D103213B460022490220465A
:10616000009500F007F8002803D0206E3043206629
:106170000320F8BDFFB583B017460E4604460C9DBC
:10618000FEF7BCF9411B0698451AFEF7B7F90190D6
:106190002848232100684843000D684342E003215A
:1061A00049028E4202D1002F00D1007B0698401C8C
:1061B00039D0FEF7A3F90199401AA84205D2002D63
:1061C00003D0009800282BD02BE020684168E02203
:1061D000914341606068C11FFD390CD10121A06865
:1061E000C903884202D04911884204D1206801685D
:1061F0004022914301600120A16A4003814207D1FE
:1062000021680A6882430A6021680A6802430A60BA
:1062100001204034607700202077032007B0F0BDD4
:106220000025401E0090206881683140B942B6D1F7
:106230000020F3E70C000020FFB581B01E460446A5
:106240000A9DFEF75BF9401B351AFEF757F9074622
:10625000264800684001000D684339E0701C38D0C2
:10626000FEF74CF9C01BA84205D2002D03D00098C0
:1062700000282BD02BE020684168E0229143416048
:106280006068C11FFD390CD10121A068C903884293
:1062900002D04911884204D120680168402291430C
:1062A00001600120A16A4003814207D121680A6888
:1062B00082430A6021680A6802430A600120403470
:1062C000607700202077032005B0F0BD0025401E38
:1062D0000090206881680298884305D000210398C7
:1062E0008142BBD10020EFE70121F8E70C0000203C
:1062F0007047000030B50C4D0446687885B0002822
:1063000010D10A200CF070FF234610222E2103A882
:106310006C4607C416220549002004F061FB0128E1
:1063200000D1687005B030BD13020020FFFF0000EF
:1063300030B50C4D0446A87885B0002810D10A204D
:106340000CF052FF234611222E2103A86C4607C4ED
:1063500016220549002004F043FB012800D1A87053
:1063600005B030BD13020020FFFF000030B50C4D1A
:106370000446287885B0002810D10A200CF034FF9C
:10638000234602222E2103A86C4607C41622054983
:10639000002004F025FB012800D1287005B030BD95
:1063A0001D020020FFFF000030B50C4D0446687848
:1063B00085B0002810D10A200CF016FF23460322D6
:1063C0002E2103A86C4607C416220549002004F0BC
:1063D00007FB012800D1687005B030BD1D02002008
:1063E000FFFF000030B50C4D0446A87885B00028AA
:1063F00010D10A200CF0F8FE234604222E2103A817
:106400006C4607C416220549002004F0E9FA012869
:1064100000D1A87005B030BD1D020020FFFF0000B4
:1064200030B50C4D0446E87885B0002810D10A201C
:106430000CF0DAFE234605222E2103A86C4607C481
:1064400016220549002004F0CBFA012800D1E8709B
:1064500005B030BD1D020020FFFF000030B50C4D1F
:106460000446287885B0002810D10A200CF0BCFE24
:10647000234600222E2103A86C4607C41622054994
:10648000002004F0ADFA012800D1287005B030BD1D
:1064900013020020FFFF000010B501F027F9FEF7FE
:1064A00091FA10BD02490148886070470040000819
:1064B00000ED00E030B505464C1E613D2D4A2E4BE7
:1064C00064100F2D27D8682812D801236138834023
:1064D000FF2904D07F290AD8105D18432AE0002044
:1064E000115C19431154401CC0B24028F8D330BD90
:1064F000012269388240FF2904D07F29F7D8185D2E
:1065000010432BE00020195C11431954401CC0B209
:106510004028F8D330BD0546713D0F2DFAD87828B4
:1065200013D8012371388340FF2905D07F29F1D882
:10653000105D9843105530BD0020115C99431154F3
:10654000401CC0B24028F8D330BD012279388240C7
:10655000FF2905D07F29F7D8185D9043185530BD25
:106560000020195C91431954401CC0B24028F8D354
:1065700030BD000074070020B407002030B474461A
:10658000641E2578641CAB4200D21D46635D5B002F
:10659000E31830BC184700008307FF22DB0E9A4047
:1065A0008907090E9940002808DB830809489B00E9
:1065B0001B18186890430843186070470007000FC5
:1065C0000838830804489B001B18D8699043084387
:1065D000D861704700E400E000ED00E0004870473B
:1065E0008802002002E008C8121F08C1002AFAD160
:1065F00070477047002001E001C1121F002AFBD143
:1066000070470000F8B50646164C0820207000239D
:10661000154A637090880D46411C918006F0F2FB8C
:10662000A080D088411CD18006F0ECFBE0800022E5
:106630005007A118400F521C92B20872202AF7D3BB
:1066400063802821074801F07CF906F0DBFB6080BD
:10665000064800902B462822024930460AF088FC62
:106660000020F8BD1C05002044000020B80B0000ED
:1066700010B504F06DFBC0B210BD10B504F0B4FC51
:10668000C0B210BD10B504F0D3FCC0B210BD10B53F
:1066900004F0F0F910BD10B504F000FB10BD10B50A
:1066A00004F028FBC0B210BD10B504F08DFB10BD86
:1066B00010B504F0B5FBC0B210BD10B504F042FC3B
:1066C00010BD10B504F064FC10BD10B504F0FEFC64
:1066D000C0B210BD10B504F02FFDC0B210BD10B592
:1066E00004F060FD10BD0000F0B5154F44003B46BE
:1066F00010331E46E518803E012A0CD00022325489
:106700003A54203E3254103632540120185518465F
:106710002030025511E0325C002A0FD13A5C002A89
:106720000CD1074A903A125C002A07D1044A803AF9
:10673000105C002802D1012018556970F0BD0000DE
:106740005C130020034A00211154012170321154BE
:1067500070470000EC1200204200034801238354DC
:1067600010184170704700008C130020084A002167
:10677000115470321154903A054B11544200803339
:1067800099542033995401211A46B03A1154704754
:10679000EC120020014A0121115470474C130020D3
:1067A00042000348012383541018417070470000D1
:1067B000AC130020084A0021115470321154803A61
:1067C000054B1154420080339954203399540121D0
:1067D0001A46C03A11547047EC120020044A0221B4
:1067E0001154002110321154203A11547047000006
:1067F0000C130020044A022111540021103A1154B4
:10680000103A1154704700001C130020034A002165
:106810001154012110321154704700002C13002034
:10682000034A002111540121103A1154704700000D
:106830003C130020034A002111540121703A1154E5
:10684000704700005C13002038B50024102807D2E0
:10685000694600F0DEFB68464078002800D001243D
:10686000204638BD0020044902464300401CC0B207
:10687000CA521028F9D37047CC130020034A4000B5
:10688000105AC840C00700D001207047CC13002028
:1068900010B5430003480124C25A8C402243C2521F
:1068A00010BD0000CC130020C840C00700D001205C
:1068B000704710B588B00446014668460AF0B0FE3D
:1068C00068460FC8079304AB07C36846417FFF299A
:1068D00017D0022915D0012917D0C91E0F290ED8AB
:1068E0000021204601F0B2F80121204601F0AEF867
:1068F0006846407FC01EC1B22046FFF72DFF08B09A
:1069000010BD2046FFF732FFF9E72046FFF752FFA0
:10691000F5E710B588B00446014668460AF080FEE7
:1069200068460FC8079304AB07C36846017FFF2979
:1069300017D0012915D0022917D0C91E0F290ED84A
:106940000021204601F082F80121204601F07EF866
:106950006846007FC01EC1B22046FFF7FDFE08B0AA
:1069600010BD2046FFF726FFF9E72046FFF7FEFEA1
:10697000F5E70000F3B597B00024054601948CA01C
:106980000294006800902978159164211598FDF70C
:10699000ABFB6A4606461071687864211290FDF7D9
:1069A000A3FB6A4650711490AA78074664211046EA
:1069B0001192FDF799FB6A4690710E900590EA7866
:1069C000642110460C92FDF78FFB6A46D0710A9045
:1069D00004900A211598FDF787FB0A217143401A9C
:1069E000C5B26A4615720A211298FDF77DFB0A218D
:1069F0007943401AC0B26A46507208900D900A213D
:106A00001198FDF771FB014605980A225043081AB8
:106A1000C0B26A469072079013900A210C98FDF755
:106A200063FB014604980A225043081AC0B26A4622
:106A3000D07284460F9064223046504315996A46BE
:106A4000081A0A216943401AC1B2117264221298CD
:106A50005743C21B0D980A235843101AC0B26A4606
:106A60005072069005986423119A5843121A13988D
:106A70000A235843101AC0B26A46907205900498CF
:106A8000642358430C9A0A23121A60465843101A7A
:106A9000C7B26A46D772002E4BD0303630351670EA
:106AA000557030311046917001461898FDF756FB2D
:106AB00040A11898FDF752FB68464079002845D060
:106AC000149869463030087008983030487006983D
:106AD000303088701898FDF741FB36A11898FDF703
:106AE0003DFB68468079002841D00E9869463030D9
:106AF00008700798303048700598303088701898C2
:106B0000FDF72CFB2BA11898FDF728FB6846C079F0
:106B100000283DD00A996846303101700F99303114
:106B200041703037877001461898FDF717FB19B090
:106B3000F0BD002D104605D0303505703031417064
:106B40008470B1E7303101704470F9E7089800288B
:106B500007D06946303008700698303048708C7025
:106B6000B8E706986946303008704C70F7E7079828
:106B7000002807D0694630300870059830304870DA
:106B80008C70BCE705986946303008704C70F7E7A8
:106B90000F98002807D00146303168460170303721
:106BA00047708470BFE76846303707704470F8E775
:106BB000000030002E000000F7B5002082B015461E
:106BC0000646024607460090AF54521CD2B2202A15
:106BD000FAD301290CD0022912D0032918D0042994
:106BE0001ED0052923D0062928D0072943D02BE021
:106BF0000824012632A102980CF0DCFA083023E0C8
:106C00000D24012631A102980CF0D4FA0D301BE0BE
:106C10000924012631A102980CF0CCFA093013E0C6
:106C20000F2431A102980CF0C5FA0F300CE00C24AF
:106C300031A102980CF0BEFA0C3005E00A2432A112
:106C400002980CF0B7FA0A30002835D00119012259
:106C50009202203191422FD20021002E17D0029AA9
:106C60004318D25C1346303B092B17D92E2A15D076
:106C7000262A15D016E027A102980CF09BFA0D30B9
:106C80000D2802D90120287016E02F7014E0029A16
:106C90004318D25C262A03D0102901D26A5401E09D
:106CA00001220092491CC9B2202902D2009A002A6E
:106CB000D3D00098012800D0002005B0F0BD00001E
:106CC000697056616C75653D000000007375626DFA
:106CD00061736B56616C75653D0000006774775693
:106CE000616C75653D000000656469666963696F84
:106CF0004E6F6D6272653D006C696E65614E6F6DC1
:106D00006272653D0000000061646D696E506173E0
:106D1000733D0000496E707574436865636B426F24
:106D200078000000F0B50446002085B00190029084
:106D30000390074604900D462046FDF71BFAC6B2A5
:106D40000020694609E0225C2E2A04D1C855032F91
:106D500001D27F1CFFB2401CC0B2B042F3D300216D
:106D60006A46084601AB127805E0275C5F54491C6F
:106D7000401CC9B2C0B28242F7D80021521CD0B226
:106D80006A46527807E001AB5B18275C491C401C3F
:106D90001F71C9B2C0B28242F5D80021521CD0B2D4
:106DA0006A46927807E001AB5B18275C491C401CDF
:106DB0001F72C9B2C0B28242F5D80021521CD0B2B3
:106DC00001AF06E07B18225C491C401C1A73C9B253
:106DD000C0B2B042F6D33846FDF7F9F92870381D35
:106DE000FDF7F5F9687003A8FDF7F1F9A87004A89C
:106DF000FDF7EDF9E870012005B0F0BD0246002076
:106E0000082904D2054B9A5C04E001207047044B2A
:106E100008399A5CCA40D107F7D17047740700203F
:106E2000B4070020F0B585B014460D46064600F0C4
:106E300041F803462146284600F0DAF80546012BC2
:106E400004D0022B08D0032B28D01BE07006800E44
:106E5000294603F055FA12E0304600F03BF80746A9
:106E6000002439462046FFF7C9FF012803D12946EF
:106E7000204603F045FA641CE4B2402CF1D3032011
:106E800003F00EFA6946304600F065F868460AF0ED
:106E90003DFB07490120087005B0F0BD00242946DC
:106EA000204603F02DFA641CE4B2402CF7D3E6E749
:106EB000EA0000200146812200200A40012A00D178
:106EC0000120E1220A40812A00D10220FF2900D1BD
:106ED00003207047014681281FD083291FD08529B0
:106EE0001FD087291FD089291FD08B291FD08D291A
:106EF0001FD08F291FD091291FD093291FD09529EA
:106F00001FD097291FD099291FD09B291FD09D29B9
:106F10001FD09F2800D10F2070470020704701200C
:106F200070470220704703207047042070470520F7
:106F300070470620704707207047082070470920D7
:106F400070470A2070470B2070470C2070470D20B7
:106F500070470E20704730B50B460546FFF7AAFF75
:106F60000124032809D002280ED0012804D1680684
:106F7000800E194600F018F830BD00201C54401C4B
:106F8000C0B21028FAD330BD2846FFF7A3FF002275
:106F90001146824201D19C5400E09954521CD2B255
:106FA000102AF6D330BD0000F0B500220E4D0124AA
:106FB00013462E5CD640F60701D08C5400E08B546B
:106FC000521CD2B2082AF4D3084D08222E5C174670
:106FD000083FFE40F60701D08C5400E08B54521C51
:106FE000D2B2102AF2D3F0BD74070020B4070020FB
:106FF0000246012807D0072A07D0062A07D0002812
:1070000000D1084670470020704701207047FE20DD
:107010007047F3B5002581B00C462F462E460095EB
:1070200030460199FFF7EAFE012811D1304603F0FE
:1070300077F901280CD16D1CEDB2304603F036F91A
:107040000099091889B20091002801D17F1CFFB274
:10705000761CF6B2402EE3D3002D06D02570677063
:1070600029460098FDF740F802E00020207060708B
:10707000A070FEBD10B5094C05202178FEF71CFF5D
:1070800061780620FEF718FFA1780720FEF714FFAD
:10709000E1780820FEF710FF10BD000080020020FC
:1070A00030B5002403E0055D0D55641CA4B29C427C
:1070B000F9D31088C018108030BD30B5002403E02B
:1070C000055D0D55641CA4B29C42F9D31088C0180C
:1070D000108030BDF0B500220124082803D20F4BE8
:1070E00005469E5C05E00D4B40339E5C0346083B25
:1070F000DDB2D308DF00D71BEE40F507CD5CFFB251
:10710000264602D0BE40354301E0BE40B543521C86
:10711000D2B2CD54402AE0D3F0BD00007407002065
:1071200030B50123082813D20022144C8340D00824
:10713000C500085C551BE840C007A05C01D018439F
:1071400000E09843A054521CD2B2402AEFD330BD85
:107150000A4C0022403408388340D008C500085C3F
:10716000551BE840C007A05C01D0184300E09843DD
:10717000A054521CD2B2402AEFD330BD7407002075
:1071800010B50520012204210007FDF7B0F910BD5C
:1071900010B50520002204210007FDF7A8F910BD55
:1071A00010B50520012210210007FDF7A0F910BD40
:1071B00010B50520002210210007FDF798F910BD39
:1071C00010B5052008210007FDF78CF9012800D033
:1071D000002010BD01B582B0002000906846817A81
:1071E0004170017A8170417A0170C17AC1700022C8
:1071F00069460448FEF7BEF9002801D0FDF7C1F842
:107200000EBD0000A00300203EB5134664246D4669
:1072100019C50A46A12101230148FDF719FA3EBD0F
:107220008C0200203EB58B187F2B09D864236D4655
:107230000DC5A0240A46012321460248FDF7B2FAF3
:107240003EBD00008C020020F0B5ADB0342105A891
:10725000FCF779FF00242394249425941C211CA876
:107260002694FCF770FF01204002FDF71DFCFDF79E
:1072700041FCB649C869182290431030C861062005
:10728000059040200A9008200F90012502268003D7
:10729000079510908F150C9600030897099411908C
:1072A0000D960E9405A8FDF7CFFD002801D0FDF73F
:1072B00068F807202390259402212496269423A879
:1072C000FDF7D0FC002801D0FDF75BF8A0481C902A
:1072D000401222901F941CA8FDF714FC002801D036
:1072E000FDF74FF89C489B4901609C4984604160D0
:1072F000046144618461C46101210462C160FDF7DD
:107300004DF9002801D0FDF73CF800219248FDF727
:10731000FBF8002801D0FDF734F800218E48FDF776
:1073200018F9002801D0FDF72CF88B488C494C3017
:107330000160FF21053184604160012504616D0217
:107340000721856109024461C1600462446284626C
:1073500007270463C76238214463C161FEF7D2F98D
:10736000002801D0FDF70DF87B487E49B030016060
:10737000FF210531846041600461072185610902B4
:107380004461C160046244628462C762382104635C
:10739000C16108214163FEF7B5F9002801D0FCF76F
:1073A000F0FF14216846FCF7CEFE68484038416B78
:1073B000042739434163416B39402C91416B0125CE
:1073C00029434163416B29402C91416B3143416317
:1073D000416B31402C91426B08210A434263406B60
:1073E0000022084041212C90C9015F48FDF77FF839
:1073F000142100228806FDF77AF800225B495C48D8
:10740000FDF775F8680300900294694601950394AE
:107410005548FCF7B9FF0B20009005200194694600
:1074200002940007FCF7B0FF0520019569460007AC
:10743000009703960295FCF7A7FF10200090052007
:1074400069460396019502940007FCF79DFF4948A1
:1074500000900194694602944548FCF795FF434823
:10746000009069460396019502944148FCF78CFF11
:10747000402000900194694602943B48FCF784FF49
:107480008020009069460396019502943648FCF7E7
:107490007BFF01946946384800970294FCF774FF1B
:1074A0000520012210210007FDF721F80122D10259
:1074B0002F48FDF71CF8012211032D48FDF717F89E
:1074C000142127A8FCF73FFE282112A82C94FCF7D2
:1074D0003AFE2B482949846001607F21C1604461E4
:1074E0008461FF21C4610161A90744620162FDF763
:1074F0000DFF002801D0FCF744FF20A80477447753
:10750000847728942A9428A82B940574457485744C
:10751000C47410A80472447284721A4813941790A9
:10752000159416941894199418A80572FF20013028
:107530001B90012212A91248FDF75CFF002801D020
:10754000FCF71FFF00F01EF92DB0F0BD4010024007
:1075500020000200005400408C020020BC7D70100E
:1075600000300140003800400008005002190000BF
:107570000004005009020000000C005000280040E8
:10758000A00300208080808010B5FF2100220131FF
:107590000148FCF7ACFF10BD0004005010B50122FB
:1075A00011020248FCF7A3FF10BD000000040050C8
:1075B00010B5002202210248FCF799FF10BD00001F
:1075C0000004005010B5012202210248FCF78FFF91
:1075D00010BD00000004005010B509F0EDFA10BD18
:1075E00010B501210448FCF77DFF002801D00020E0
:1075F00010BD012010BD0000000400500EB5002198
:107600006846017264200090012301AA02A9034880
:10761000FEF7EEF9684600790EBD0000D8020020A2
:1076200001B56423012269460148FEF731F908BD1E
:10763000D80200200EB50021684601726420009037
:10764000012301AA02A90348FEF7D2F9684600798E
:107650000EBD00003C03002001B5642301226946F1
:107660000148FEF715F908BD3C03002010B5064C93
:10767000012211032046FCF73AFF0122D1022046E5
:10768000FCF735FF10BD00000004005010B5064C9B
:1076900001210022C9022046FCF729FF0122110323
:1076A0002046FCF724FF10BD0004005010B5064C26
:1076B000012211032046FCF71AFF0122D1022046C5
:1076C000FCF715FF10BD00000004005010B5064C7B
:1076D0000121002209032046FCF709FF0122D10203
:1076E0002046FCF704FF10BD0004005010B50BF05D
:1076F00089FD10BD10B5012149020448FCF7F2FED6
:10770000002801D0002010BD012010BD0004005051
:1077100001B586B014216846FCF715FD6846017E68
:107720000170417E4170817E817000200190039044
:107730000246049069460448FDF76AFF002801D01C
:10774000FCF71FFE07B000BDA003002010B501220A
:1077500080210248FCF7CBFE10BD0000000800505D
:1077600010B5002280210248FCF7C1FE10BD0000C8
:107770000008005010B50248FDF71CF910BD0000CC
:10778000CC03002010B50848064901600321416080
:107790000649C1608160FDF7DBF8002801D0FCF7E5
:1077A000F0FD10BD00300040CC030020FF0F0000B2
:1077B00001B5012200216846FFF734FD14200BF0CB
:1077C00013FD08BD10B504221421FFF72BFD142072
:1077D0000BF00AFD10BD10B504221021FFF722FDA9
:1077E00014200BF001FD10BD10B5234CA07900282A
:1077F00005D060791E2808D9FFF7D0FE07E0207970
:107800000128F9D0A0780128F6D0FFF7BDFEA079B5
:10781000002805D06079142808D2FFF7D3FE07E0CE
:107820002078002802D120790028F6D0FFF7C0FE8A
:10783000FFF760FF01280CD1FFF75CFF0128FBD0A8
:1078400009F054FA03F0C0FE00280FD0FF2003F027
:1078500009FFFFF7C5FE012807D1FFF7C1FE012888
:10786000FBD000F0BBFB0BF0DFFF10BD0349FF2096
:1078700003F0B0FEEDE7000050000020B80B000060
:107880000149002008717047500000200248012182
:1078900081700021C1707047500000200149012013
:1078A000087170475000002002480121017000213A
:1078B00041707047500000200149002088717047D6
:1078C00050000020024900224A7188717047000070
:1078D00050000020144802780021012A03D1427888
:1078E000002A04D001708278012A04D00BE042788B
:1078F000521C4270F7E7C278052A03D2C178491CAE
:10790000C17000E081704179002902D0491E4171A7
:1079100070473221417181790029F9D0FF29F7D0D0
:10792000491E8171704700005000002000780870E7
:107930001088401C1080704708701088401C108010
:10794000704770B54D080022134609E05E00845D63
:107950003618767824023419A4B212195B1C9BB233
:10796000AB42F3D3C90703D05900405C0002821830
:10797000100C8018C04380B270BD000070B51E4D61
:107980001E4EAC78305D012802D0022812D02BE0C8
:107990002046FEF759FF012809D0204609F098FF3C
:1079A000032804D020460AF0B1FD02281CD1022091
:1079B000305519E02046FEF747FF012814D0204635
:1079C00009F086FF03280FD020460AF09FFD022809
:1079D0000AD0094801213155001D0288A1408A437F
:1079E000028042888A434280A8780F2801D2401C36
:1079F00000E00020A87070BDC801002054100020D5
:107A000070B5FFF7BBFF084C00252078012803D193
:107A10002570032003F090FB6078012803D1657086
:107A2000042003F053FB70BDC801002010B51028DE
:107A300008D2012906D84A00034901248B5A844000
:107A4000A3438B5210BD0000CC01002010B51028BC
:107A500008D2012906D84B0003490124CA5A8440A0
:107A60002243CA5210BD0000CC010020002004496E
:107A700001220A54401CC0B21028FAD370470000FB
:107A80005410002010B5104804F0F4FD0E480178A1
:107A9000002917D14178002914D18178002911D10A
:107AA000C07800280ED10520FEF706FA0021062036
:107AB000FEF702FA00210720FEF7FEF90021082058
:107AC000FEF7FAF910BD00008402002070B505022F
:107AD0000848102128180446FEF7EEF92046FEF764
:107AE000D6F90028FAD10348FF21401C2818FEF7D8
:107AF000E3F970BD0104000004498A7A012A03D128
:107B0000A32801D102208872704700002D020020B6
:107B100005498A78012A05D1202801D0212801D1E0
:107B200002208870704700002D02002004494A7826
:107B3000012A03D1172801D10220487070470000A4
:107B40002D02002010B5054BDC79012C05D1102841
:107B500003D10220D87119725A7210BD2D02002073
:107B600010B51B4B1C79012C1ED111281CD10220F1
:107B700018715971FF219971082A16D0102A12D054
:107B8000182A14D0202A14D0282A14D0302A14D02D
:107B9000382A14D0402A14D0482A14D0502A14D09D
:107BA000582A01D10B20987110BD0120FBE703205A
:107BB000F9E70420F7E70520F5E70620F3E70720BB
:107BC000F1E70820EFE70920EDE70A20EBE70000E6
:107BD0002D02002010B5054B1C7B012C05D112286D
:107BE00003D10220187359739A7310BD2D0200201F
:107BF0000549CA78012A05D1302803D33B2801D88A
:107C00000220C870704700002D0200200449CA7A83
:107C1000012A03D1222801D10220C8727047000036
:107C20002D02002004490A78012A03D1162801D127
:107C300002200870704700002D020020044A002135
:107C4000535C4354491CC9B21029F9D37047000052
:107C50006405002010B5064B0022845C9C54521C25
:107C6000D2B2102AF9D3012901D100F08FFA10BD48
:107C70006405002030B5064C002223464033A55C45
:107C800085549D5C8D54521CD2B2402AF7D330BD2E
:107C9000C405002070B5084D00232C46403CCE5C46
:107CA000EE54C65CE6545B1CDBB2402BF7D3012AD2
:107CB00001D100F06BFA70BD0406002010B5064B30
:107CC00000200C5C1C54401CC0B24028F9D3012A8F
:107CD00001D100F05BFA10BDB407002010B5064BCF
:107CE00000200C5C1C54401CC0B24028F9D3012A6F
:107CF00001D100F04BFA10BD74070020044A0021A6
:107D0000535C4354491CC9B24029F9D37047000061
:107D10008405002010B5064B0022845C9C54521C44
:107D2000D2B2402AF9D3012901D100F02FFA10BDB7
:107D300084050020044A0021535C4354491CC9B205
:107D40000429F9D3704700006400002010B5064BE9
:107D50000022845C9C54521CD2B2042AF9D301291B
:107D600001D100F013FA10BD6400002038B50022E4
:107D70000424314B11461046009405F0FDFA2E4BB9
:107D800000211B1D04220846009405F0F5FA2A4B39
:107D90000021083308220846009405F0EDFA10246B
:107DA0000021264B0C220846009405F0E5FA234BEF
:107DB000002110331C220846009405F0DDFA1F4B09
:107DC000002120332C220846009405F0D5FA1B4BE5
:107DD000002130333C220846009405F0CDFA174BC1
:107DE00040240022403301211046009405F0C4FADB
:107DF000124B4022803301210020009405F0BCFA90
:107E00000E4B8022C03301210020009405F0B4FA0B
:107E10000B4B402204210020009405F0ADFA084BE2
:107E2000C022403304210020009405F0A5FA00F0A0
:107E3000FBFA00F05DFB38BD5C000020440500202B
:107E40007407002038B50C460949497800290CD13F
:107E50000E210091014623460022072005F08CFAEE
:107E60002078012801D8012038BD002038BD00004D
:107E70005800002038B505460B480C4640780128CC
:107E800001D0002038BD05F0D9FA0D20009023461E
:107E900000222946072005F0B1FA05F0A2FAC00732
:107EA000FBD1012038BD000058000020044901200A
:107EB0004A78012A00D0002000224A707047000052
:107EC0005800002070B50A4C0125607800280CD1BC
:107ED00005F0B4FA00221146072005F06DFA05F00E
:107EE00080FAC007FBD101206070284670BD0000F9
:107EF00058000020044A0021535C4354491CC9B275
:107F00000429F9D3704700005C00002010B50C462E
:107F100007490022835C8B54521CD2B2042AF9D345
:107F20000348FFF74FFC012C01D100F02FF910BDE1
:107F30005C000020044A0021535C4354491CC9B230
:107F40001029F9D3704700007405002010B5064BC6
:107F50000022845C9C54521CD2B2102AF9D301290D
:107F600001D100F013F910BD74050020044A00216E
:107F7000535C4354491CC9B21029F9D3704700001F
:107F80004405002010B5064B0022845C9C54521C12
:107F9000D2B2102AF9D3012901D100F0F7F810BDAF
:107FA00044050020044A0021535C4354491CC9B2D3
:107FB0001029F9D3704700005405002010B5064B76
:107FC0000022845C9C54521CD2B2102AF9D301299D
:107FD00001D100F0DBF810BD5405002010B520A041
:107FE00094B0006810901FA00068119000201290BB
:107FF0001D4801460C311EC9009101A91CC1014652
:108000001C311EC9049105A91CC101462C311EC991
:10801000089109A91CC13C300FC80CAC0FC4002149
:1080200010A8FFF773FF002111A800F0B9F9002193
:1080300012A8FFF78BFE00216846FFF7A3FF00217F
:1080400004A8FFF7BBFF002108A8FFF703FE0021EB
:108050000CA8FFF77BFF00F099F814B010BD0000EA
:10806000C0A801FEFFFFFF00E043010838B50C4641
:108070000949097800290DD10E2110300091C1B2B3
:1080800023460022062005F077F92078012801D840
:10809000012038BD002038BD58000020F8B5124D31
:1080A000064628780C46012801D00020F8BD05F0CE
:1080B000C5F9E0790AF043FD6880617AA172217AFE
:1080C0006172010AE17120720E2010360090F1B247
:1080D00023460022062005F091F905F082F9C00739
:1080E000FBD10120F8BD0000580000200449012008
:1080F0000A78012A00D0002000220A707047000090
:108100005800002008B50B4607490978002901D01E
:10811000002008BD0A2150300091C1B20022062083
:1081200005F02AF9012008BD5800002038B50446A2
:108130000B480D460078012801D0002038BD05F01D
:108140007DF90A2050340090E1B22B46002206202F
:1081500005F054F905F045F9C007FBD1012038BD01
:108160005800002010B5012405F068F900221146DE
:10817000062005F021F905F034F9C007FBD10249CA
:1081800001200870204610BD58000020F0B5FFB057
:10819000FFB08DB0FC2142A8FBF7D5FF754E81AD35
:1081A00030684190FC21281DFBF7CDFF706881905D
:1081B000FC2101AC02A8FBF7C6FFB06801906EA0DD
:1081C0000068F3AEC290042300226C49304604F0EC
:1081D00023FA6A4904231A46091D304604F01CFAA2
:1081E0006649042308220831304604F015FA1023AA
:1081F0000C226349304604F00FFA614910231C2217
:108200001031304604F008FA5D4910232C22203149
:10821000304604F001FA5A4910233C2230313046EE
:1082200004F0FAF95649C3AE4023002240313046EB
:1082300004F0F2F9524940231A468031304604F0E6
:10824000EBF94F4940238022C031304604F0E4F975
:1082500040231A464B49204604F0DEF949494023A1
:10826000C0224031204604F0D7F90024FFAF1C376C
:108270003946204600F0A8F822011023394641A8CB
:1082800004F0CAF9641CE4B2102CF1D30024FFAF4F
:1082900028373946204600F009F9220110233946D3
:1082A000284604F0B9F9641CE4B2102CF1D305F0AF
:1082B000C5F800221146104605F07EF805F091F849
:1082C000C007FBD105F0BAF84C2000220090F3ABB8
:1082D0001146104605F092F805F083F8C007FBD16F
:1082E00005F0ACF8C0200022009033460121104672
:1082F00005F084F805F075F8C007FBD105F09EF88D
:10830000FF240134002241AB02211046009405F005
:1083100075F805F066F8C007FBD105F08FF800226C
:108320002B4603211046009405F068F805F059F833
:10833000C007FBD105F082F8002201AB04211046F2
:10834000009405F05BF805F04CF8C007FBD105F090
:1083500075F8022000220090C2AB0521104605F0FE
:108360004DF805F03EF8C007FBD17FB07FB00DB0EF
:10837000F0BD0000E0430108010100005C000020A6
:108380004405002074070020044A0021535C435434
:10839000491CC9B20429F9D37047000060000020CD
:1083A00010B50C4607490022835C8B54521CD2B294
:1083B000042AF9D30348FFF70EFA012C01D1FFF785
:1083C000E5FE10BD6000002010282AD2154A125C7C
:1083D0000A70144A1032125C4A70124A2032125C3F
:1083E0008A70104A3032125CCA700E4A4032125CF7
:1083F0000A710C4A5032125C4A710A4A6032125CAD
:108400008A71084A7032125CCA71064A8032125C64
:108410000A72044A9032125C4A72024AA032105C1C
:1084200088727047440600207FB500240B25200782
:10843000020E01AB02210020009504F09DFF0022F6
:1084400001A9204600F006F8641CE4B2102CEED31B
:108450007FBD000010B5102821D2134C0B78235497
:108460004B78103423548B7810342354CB78103449
:1084700023540B79103423544B79103423548B79C3
:1084800010342354CB79103423540B7A10342354F2
:108490004B7A103423542346897A10331954012A15
:1084A00001D1FFF773FE10BD440600200F4A125C95
:1084B0000A700E4A1032125C4A700C4A2032125C6A
:1084C0008A700A4A3032125CCA70084A4032125C22
:1084D0000A71064A5032125C4A71044A6032125CD8
:1084E0008A71024A7032105CC8717047F40600202D
:1084F0003EB5002408252007020E01AB0321002011
:10850000009504F039FF002201A9204600F006F88A
:10851000641CE4B2102CEED33EBD000010B5102850
:108520001CD20F4C0B7823544B78103423548B7887
:1085300010342354CB78103423540B791034235443
:108540004B79103423548B79103423542346103341
:10855000C9791954012A01D1FFF718FE10BD000096
:10856000F406002010B5094BDC78012C0BD1A928AA
:1085700009D1012908D0002901D1022A04D0002004
:1085800018710220D87010BD0120F9E7CE0000203C
:10859000F0B5124C85B0E078002813D1E07C0127BB
:1085A000002503AE01280FD02B20A923012200961D
:1085B000029501900A49052002F012FA012801D122
:1085C0002571E77005B0F0BD0A200AF00DFE2E20DF
:1085D000A9231622009602950190EBE7CE00002019
:1085E000FFFF000070B50D4C2078012815D10C4D0F
:1085F0002878002802D1FF2000F044F828780228CB
:1086000002D1FF2001F010FA06480078022804D1B8
:10861000012001F0A7FA0220207070BD6800002040
:10862000DE000020DF0000200149002008707047B4
:108630006800002070B50A4C02252078012804D07B
:10864000012001F07DFA012802D00020257070BDC4
:10865000044900200870044908700120207070BD92
:1086600068000020DE000020DF00002004490A7CB2
:10867000012A03D1A32801D1022008747047000009
:10868000CE00002010B50D4C86B0217C002910D101
:10869000E17C01290FD02B2103AA009201910290C5
:1086A000A32301220649052002F09AF9012800D1EE
:1086B000207406B010BD0220FAE70000CE000020B2
:1086C000FFFF000004490A7A012A03D1A52801D13D
:1086D0000220087270470000CE000020F0B5124C56
:1086E0000546207A85B0002811D1E07C012703AE31
:1086F00001280ED02D20A52301220096029501907D
:108700000A49052002F06CF9012800D1277205B052
:10871000F0BD0A200AF068FD2E20A523162200963F
:1087200002950190ECE70000CE000020FFFF000062
:108730007CB52D4CE078012852D120790225002803
:1087400008D12A4E3078002801D100F0E7FA3078BD
:10875000022803D02079012806D00FE00021244808
:10876000FFF7D8FA01202071224E3078002802D17C
:108770001F4800F02DFB3078022803D02079022812
:1087800006D00DE001221C491948FFF783FA257134
:108790006078002801D100F085FB6078022803D0C2
:1087A0002079032802D009E003202071A078002856
:1087B00001D100F045FBA078022812D020790428CE
:1087C0000ED1022001F0CEF90C49FF2009780346B2
:1087D0000122019100900221104601F0F9FAE570A2
:1087E0007CBD04202071ECE71C0100203601002034
:1087F000B40C00203B010020F40C002037010020C5
:1088000070B50C4C0225E078012804D0022001F05C
:1088100097F9012802D00020E57070BD00F078FAC9
:1088200000F0D0FA00206070A0700121E17020718A
:10883000084670BD1C010020FEB5434CA0780128FD
:108840007ED1E078002802D1012000F08FF8E07896
:1088500001280AD13D4D2878002801D1FFF7EAFE12
:108860002878022801D100F081F8E078FF26384D01
:1088700002282FD1374F3878002802D1012100F08B
:10888000EFFF3878022825D13348007801280ED030
:108890002078002814D0401E2070002000F066F8D8
:1088A000FF23207800901A461946AA2010E0287865
:1088B000002801D0032000E0052000F057F809E06F
:1088C000052000F053F8FF231A461946AB20009606
:1088D00001F0E8F9E078032814D1204F3878002817
:1088E0000AD11F4A01461154401CC0B24028FAD395
:1088F0002978002000F07CF93878022802D1042081
:1089000000F034F8E078042802D1052000F02EF8B9
:10891000E078052816D1287801220190FF23022152
:108920000096104601F054FA042001F01BF90D489E
:108930000078012802D10C4808F09CFC022000E0DD
:1089400000E0A070FEBD00002801002068000020AB
:108950005801002055010020560100203001002060
:10896000B40C0020E1000020E600002010B5044611
:10897000FFF75AFE00F02EFF00F012F90148C47014
:1089800010BD00002801002070B50D4C0225A07814
:10899000012804D0042001F0D3F8012802D0A570EA
:1089A000002070BD0120A0706920C000A0800320BD
:1089B000207060700020FFF7D9FF012070BD00001B
:1089C00028010020F0B56C4C85B0A07801287CD13E
:1089D00020780026022700280AD1FF2301211A4609
:1089E00008460097019601F0F3F9012000F0DEF847
:1089F0002078012811D1614D2878002801D101F09B
:108A00003FF82878022802D16078FFF767FE5C48BB
:108A10000078022801D100F0C9F82078FF2502284B
:108A200046D1607900F0DCFE0490607900F0E6FE4B
:108A30000390607900F0DAFE029052480078002836
:108A400002D1049800F04EFF4E480078022802D16F
:108A5000039800F0B3FF4C480078022802D1029836
:108A600000F076FF49480078022801D100F014FB9D
:108A70004748007802281BD146480078002801D0DA
:108A8000032013E0E07900280DD060790190009573
:108A90009420029B039A049901F004F9E079401EA6
:108AA000E071022002E0E6702571052000F07EF8FA
:108AB0002078032832D138480078002808D1374878
:108AC0006179405C4000401C00E052E000F0D2F8C8
:108AD00031480078022801D100F0DEFA2C480078F5
:108AE00002281BD12B480078002801D0042013E075
:108AF000E07900280DD06079019000959520029BC7
:108B0000039A049901F0CEF8E079401EE07102204A
:108B100002E0E6702571052000F048F8207804286E
:108B200017D16079FF23401CC0B260710121019010
:108B30001A460097084601F04BF96079A1798842FE
:108B400001D2022003E00120E0702571052000F031
:108B50002DF8207805280CD1084D2878002801D15F
:108B600000F08EFF2878022803D1082000F0FAFFD9
:108B7000A77005B0F0BD00002E010020D800002035
:108B8000D6000020CE000020CF000020D000002022
:108B9000DA000020DB000020DD000020740C002043
:108BA00001490020887070472E010020084A0021EA
:108BB0001170084A1170084A1170084A1170084A69
:108BC0001170084A1170084A1170084908707047FE
:108BD000D8000020D6000020CE000020CF000020CA
:108BE000D0000020DA000020DD0000202E0100204F
:108BF000F8B5174C0646A07802270D46012804D088
:108C0000082000F09DFF012801D0A770F8BD0320C7
:108C1000E0710020667060710E4AA571FF21115449
:108C2000401CC0B24028FAD300210B4B08461D5C03
:108C3000002D02D15054491CC9B2401CC0B240287A
:108C4000F5D30120A0700020FFF7B0FFF8BD0000B1
:108C50002E010020740C0020B40C00200449CA7BB3
:108C6000012A03D1B72801D10220C8737047000040
:108C7000CE000020F0B5124C0546E07B85B0002800
:108C800011D1E07C012703AE01280ED02B20B723A1
:108C900001220096029501900A49052001F0A0FEEC
:108CA000012800D1E77305B0F0BD0A200AF09CFA54
:108CB0002E20B7231622009602950190ECE70000C3
:108CC000CE000020FFFF0000FEB50F4C20780128E9
:108CD00019D10E4F01253878FF26002809D1FF232E
:108CE00001211A4608460196009501F071F800F03E
:108CF00021F93878022806D1102000F033FF022035
:108D00002070E5702671FEBD36010020D3000020E2
:108D100001490020087070473601002070B50E4CE4
:108D200002252078012804D0102000F009FF012836
:108D300002D00020257070BD0021084A61700846ED
:108D40001154401CC0B24028FAD3054801700F20CE
:108D5000A0700120207070BD36010020B40C0020EE
:108D6000D30000201CB5154C2078012811D1607863
:108D70003F281DD201F048FD012807D1104908788D
:108D8000002807D0022804D1002008706078401C19
:108D900060701CBDFF2103200B460A460191009024
:108DA0000121084601F014F8607800F02DF91CBD8F
:108DB000402000F0D7FE022020701CBD3B010020A7
:108DC000E000002001490020087070473B010020AE
:108DD00070B50E4C02252078012804D0402000F008
:108DE000AFFE012802D00020257070BD0020084988
:108DF000FF220A54401CC0B24028FAD30549002083
:108E0000087060700120207070BD00003B010020E0
:108E1000F40C0020E000002070B5084C0D462178CD
:108E20001346012908D1C12806D101221946284636
:108E3000FEF744FF0220207070BD00001E010020DC
:108E400010B586B003A801F0BBFC0A4C20780028BE
:108E50000ED1C1222E2103A8029201910090FF237E
:108E600007220549052001F0BBFD012800D1207033
:108E700006B010BD1E010020FFFF000070B5084CB9
:108E80000D4621781346012908D1C02806D10122B8
:108E900019462846FEF722FF0220207070BD000010
:108EA0001D01002010B586B003A801F089FC0A4C12
:108EB000207800280ED1C0222E2103A80292019111
:108EC0000090FF2307220549052001F089FD0128B4
:108ED00000D1207006B010BD1D010020FFFF000072
:108EE000F7B5114D6979012916D1912814D10026C1
:108EF0000E4F2E7534462146019801F0AFFA012835
:108F000003D10298005DFF2807D03E55641CE4B2EF
:108F1000402CF0D302206871FEBD01200449385571
:108F20000878401C0870F1E7CE000020B40C002047
:108F30003701002010B50DA103C986B00D4C049176
:108F40000390607900280ED191222E2103A802926D
:108F500001910090FF2307220749052001F040FD01
:108F6000012800D1607106B010BD0000FFFFFFFFB7
:108F7000FFFFFFFFCE000020FFFF000070B51F4E77
:108F80001C46B37C86B0012B23D14B069B0E1C4D97
:108F9000992802D0A72809D02CE0012A02D0FF206E
:108FA000E85427E0EC54FF2C08D023E0012C12D029
:108FB000062C12D0082C17D0FE2C1BD0A7232E2253
:108FC00003A86C460DC40B4601220E49052001F092
:108FD00007FD06B070BD01200AE0E85C0828EDD06E
:108FE0000128EBD0062003E0E85C0128E6D0082049
:108FF000E854E3E70220B074EBE70000CE00002065
:10900000F40C0020FFFF000010B50D4C86B0A17CD1
:10901000002912D1402810D2992340002E2203A902
:10902000401C029301920091C3B201220549052020
:1090300001F0D6FC012800D1A07406B010BD0000DC
:10904000CE000020FFFF000010B5094B9C79012CD9
:109050000BD1962809D1012908D0002901D1022A73
:1090600004D00020D8710220987110BD0120F9E7CA
:10907000CE00002010B5074B1C7B012C08D1BB286B
:1090800006D1012902D1012058739A730220187366
:1090900010BD0000CE000020F0B5134C85B0207B41
:1090A000002815D1E07C2E27002503AE012811D021
:1090B000BB2301220197009602950C49052001F07F
:1090C0008FFC012804D16573FF20A0730120207359
:1090D00005B0F0BD0A200AF087F8BB2316220197DD
:1090E00000960295E9E70000CE000020FFFF000097
:1090F0000449CA7A012A03D1A72801D10220C872E3
:1091000070470000CE000020F0B5124C85B0E07A28
:10911000002812D1E07C0025012703AE01280ED0E3
:109120002D20A72301220096029501900A490520CF
:1091300001F056FC012800D1E77205B0F0BD0A200D
:109140000AF052F82E20A7231622009602950190CD
:10915000ECE70000CE000020FFFF00007CB52F4CA4
:109160006078012858D1A078002802D1012000F0B1
:1091700061F8A078012802D1022000F05BF8A07805
:10918000274D022816D1274E3078002803D101211F
:10919000FF2000F065FB307802280BD122480078D0
:1091A000012802D12878002801D0032000E0052002
:1091B00000F040F8A07803280BD11C4E307800282E
:1091C00001D1FFF7ABFD3078022802D1042000F076
:1091D00031F8A07804280DD1154E3078002803D13D
:1091E0002978FF20FFF704FD3078022802D10520FE
:1091F00000F020F8A07805280ED1802000F0B2FC05
:109200002978FF2003460122019100900221104697
:1092100000F0DEFD022060707CBD00003E010020F9
:109220005801002055010020560100203601002081
:109230003001002010B5044600F0CCFAFFF768FDBD
:10924000FFF7AEFC0148847010BD00003E01002015
:1092500070B50C4C02256078012804D0802000F005
:109260006FFC012802D00020657070BD0120607085
:10927000052020706920C000A0800020FFF7DAFFE1
:10928000012070BD3E010020FEB5FE4E707C01281D
:109290007ED17078002500280BD1B570FF23012105
:1092A00000951A460846019500F092FD012000F055
:1092B000ADFA707801281BD1F34C2078002801D139
:1092C00000F0DEFB2078022802D13079FFF706FAA1
:1092D000EE48007802280BD1F078012805D1FFF77D
:1092E00013FFEB480078022802D1022000F08EFA2A
:1092F0007078E84FE84C02282CD1E8480078002824
:1093000002D1FF2000F0EEFAE4480078022802D1F2
:10931000FF2000F053FB3878022802D1FF2000F034
:1093200017FB2078022801D1FFF732F9DC480078DA
:1093300002280FD1DB48007801280FD00E2000F062
:1093400065FAFF200090024601909323022101203C
:1093500000F0A8FC7078032804D01DE0032000F082
:1093600055FAF7E73572FF20F0710820B0718020C0
:1093700070712078002801D100F0EAFA20780228E4
:1093800002D1002000F01AFB3878022804D100E056
:1093900012E2042000F03AFABA4801264078042884
:1093A00031D1BE480078002803D1B648407900F09A
:1093B00099FABA480078022801D1FFF7E9F8B848CD
:1093C000007802281FD1B74800780128AD484179BC
:1093D0000FD0017282793346921E93405918417121
:1093E000A8488179491E0906090E817108D0042018
:1093F00007E0C17182793346921E9340C91AEEE7A5
:10940000052000F003FA9F484078052828D1A3489A
:109410000078002803D19B48007A00F063FA9F4847
:109420000078022802D1FF2000F092FA207802286A
:1094300002D1FF2000F0C2FA3878022801D1FFF7EC
:10944000A7F89748007802280AD1964800780128A2
:109450008C48017A00D0491C4173062000F0D6F9EF
:109460008848407806281BD18648FF2185724172C2
:10947000082181718021417188490978002902D130
:10948000407B00F02FFA85480078022802D10020A6
:1094900000F05EFA2078022802D1072000F0B6F929
:1094A0007848407807282FD13878002803D17548AC
:1094B000407900F083FA3878022801D1FFF768F884
:1094C0007748007802281FD17648007801286D4837
:1094D00041790FD08172837932469B1E9A40511890
:1094E000417168488179491E0906090E817108D0C9
:1094F000072007E04172837932469B1E9A40891A01
:10950000EEE7082000F082F95E484078082820D174
:109510003878002803D15B48807A00F04FFA387819
:10952000022802D1FF2000F013FA2078022801D18E
:10953000FFF72EF85A48007802280AD159480078D7
:1095400001285048817A00D0491C8173092000F01D
:109550005DF94C48407809281DD14A48FF21057320
:10956000C17208218171802141714C480078002826
:1095700003D14448407B00F0B5F948480078022800
:1095800003D14048807B00F019FA3878022802D1D4
:109590000A2000F03BF93B4840780A282FD1207878
:1095A000002803D13748407900F0D2F9207802280A
:1095B00001D1FEF7EDFF3A48007802281FD1394863
:1095C000007801282F4841790FD001738279334602
:1095D000921E9340591841712A488179491E090603
:1095E000090E817108D00A2007E0C17283793246E2
:1095F0009B1E9A40891AEEE70B2000F007F92148DC
:1096000040780B281CD12078002803D11D48007B0E
:1096100000F09EF92078022801D1FEF7B9FF20481A
:10962000007802280CD11F48007801281548017BDA
:1096300000D0491CC173134886700C2000F0E6F876
:10964000104840780C2837D114480078002803D1FE
:109650000C48407B00F046F910480078022803D1FE
:109660000848807B00F0AAF93878022803D1054821
:10967000C07B00F06DF92078022801D1FFF70CFDC6
:10968000094813E044010020D8000020D600002043
:10969000D9000020CF000020D0000020CE00002004
:1096A000D1000020D2000020DA000020007802283B
:1096B00002D10D2000F0AAF8404C60780D280BD1A3
:1096C0003F4F3878002801D100F010FA387802288E
:1096D00002D10E2000F09AF860780E281CD1A078F4
:1096E000012803D0A674FF20E0744CE0217D4029BE
:1096F0004BD234480078012816D02078002840D07A
:10970000401E2070E07B0090A37B627B442000F031
:10971000C9FA022000F07AF860780F284CD12A4D5F
:10972000287800283ED03FE02848637B4354A77B3D
:10973000401840221754E67B80221654244A029394
:109740001278FF2A00D05208C0300270491CC8B2FB
:1097500020751E212174A57003212170FF23012192
:1097600001901A460095084600F032FB18483B4627
:10977000007801900096217D6620029A00F092FA0E
:10978000C7E7A574E5740F20C4E7FF20034602462F
:1097900001460090552000F085FAA574E67441203A
:1097A0002075F0E700F06CF92878022804D1C00198
:1097B00000F0D8F902206074FEBD000044010020D2
:1097C000D7000020DB000020D8000020340D00204E
:1097D000DC0000200149002048747047440100204B
:1097E0000149085C70470000340D00200249081848
:1097F0008030007870470000340D002002490818BE
:109800004030007870470000340D00200A4A0021E3
:1098100011700A4A11700A4A11700A4A11700A4AF4
:1098200011700A4A11700A4A11700A4A11700A4AE4
:1098300011700A4948707047D6000020D9000020F6
:10984000D8000020CE000020CF000020D000002053
:10985000D1000020D7000020DA00002044010020C1
:10986000F8B5184C0646607C02270D46012804D046
:10987000F80100F065F9012802D000206774F8BDF6
:109880000020A07403212170FF22E27426714B2175
:10989000E570C900E1821E2121740B4B20751A541A
:1098A000191840256A5480256A54C031401CC0B242
:1098B0000A704028F3D30020FFF7A8FF012060744E
:1098C000F8BD000044010020340D002004490A784E
:1098D000012A03D1B12801D102200870704700008D
:1098E000CE000020F0B5124C0546207885B0002847
:1098F00011D1E07C012703AE01280ED02B20B1232B
:1099000001220096029501900A49052001F068F8AD
:10991000012800D1277005B0F0BD0A2009F064FCD1
:109920002E20B1231622009602950190ECE700004C
:10993000CE000020FFFF000004498A78012A03D1ED
:10994000B52801D10220887070470000CE000020A9
:10995000F0B5124C0546A07885B0002811D1E07C06
:10996000012703AE01280ED02B20B523012200963B
:10997000029501900A49052001F032F8012800D132
:10998000A77005B0F0BD0A2009F02EFC2E20B523EB
:109990001622009602950190ECE70000CE00002010
:1099A000FFFF000004494A78012A03D1B32801D1FE
:1099B0000220487070470000CE000020F0B5124C25
:1099C0000546607885B0002811D1E07C012703AE00
:1099D00001280ED02B20B32301220096029501907E
:1099E0000A49052000F0FCFF012800D1677005B08E
:1099F000F0BD0A2009F0F8FB2E20B32316220096B2
:109A000002950190ECE70000CE000020FFFF00006F
:109A100004494A7C012A03D1802801D102204874DC
:109A200070470000CE00002010B50D4C86B0617C60
:109A3000002911D1E17C012910D080232D2203A916
:109A4000029301920091034601220649052000F08D
:109A5000C7FF012800D1607406B010BD0220FAE7EC
:109A6000CE000020FFFF000004498A7A012A03D1BA
:109A7000A12801D10220887270470000CE0000208A
:109A8000F0B5124C85B0A07A002812D1E07C0025F8
:109A9000012703AE01280ED02B20A123012200961E
:109AA000029501900A49052000F09AFF012800D193
:109AB000A77205B0F0BD0A2009F096FB2E20A12365
:109AC0001622009602950190ECE70000CE000020DF
:109AD000FFFF000004494A7A012A03D1AB2801D1D3
